{
  "contractName": "VotingSystem",
  "abi": [
    {
      "inputs": [
        {
          "internalType": "string",
          "name": "_name",
          "type": "string"
        },
        {
          "internalType": "string[]",
          "name": "_choices",
          "type": "string[]"
        },
        {
          "internalType": "uint256",
          "name": "_registrationStart",
          "type": "uint256"
        },
        {
          "internalType": "uint256",
          "name": "_registrationEnd",
          "type": "uint256"
        },
        {
          "internalType": "uint256",
          "name": "_votingStart",
          "type": "uint256"
        },
        {
          "internalType": "uint256",
          "name": "_votingEnd",
          "type": "uint256"
        },
        {
          "internalType": "uint256",
          "name": "_RX",
          "type": "uint256"
        },
        {
          "internalType": "uint256",
          "name": "_RY",
          "type": "uint256"
        }
      ],
      "stateMutability": "nonpayable",
      "type": "constructor"
    },
    {
      "anonymous": false,
      "inputs": [
        {
          "indexed": true,
          "internalType": "address",
          "name": "voter",
          "type": "address"
        }
      ],
      "name": "AddedVoter",
      "type": "event"
    },
    {
      "anonymous": false,
      "inputs": [
        {
          "indexed": true,
          "internalType": "address",
          "name": "previousOwner",
          "type": "address"
        },
        {
          "indexed": true,
          "internalType": "address",
          "name": "newOwner",
          "type": "address"
        }
      ],
      "name": "OwnershipTransferred",
      "type": "event"
    },
    {
      "anonymous": false,
      "inputs": [
        {
          "indexed": true,
          "internalType": "address",
          "name": "voter",
          "type": "address"
        },
        {
          "indexed": true,
          "internalType": "uint256",
          "name": "blindedUUID",
          "type": "uint256"
        }
      ],
      "name": "Registered",
      "type": "event"
    },
    {
      "anonymous": false,
      "inputs": [
        {
          "indexed": true,
          "internalType": "address",
          "name": "voter",
          "type": "address"
        },
        {
          "indexed": true,
          "internalType": "uint256",
          "name": "uuid",
          "type": "uint256"
        },
        {
          "indexed": true,
          "internalType": "uint256",
          "name": "choice",
          "type": "uint256"
        }
      ],
      "name": "Voted",
      "type": "event"
    },
    {
      "inputs": [],
      "name": "alreadyVotedCount",
      "outputs": [
        {
          "internalType": "uint256",
          "name": "",
          "type": "uint256"
        }
      ],
      "stateMutability": "view",
      "type": "function"
    },
    {
      "inputs": [
        {
          "internalType": "uint256",
          "name": "",
          "type": "uint256"
        }
      ],
      "name": "ballots",
      "outputs": [
        {
          "internalType": "uint256",
          "name": "RX",
          "type": "uint256"
        },
        {
          "internalType": "uint256",
          "name": "RY",
          "type": "uint256"
        },
        {
          "internalType": "uint256",
          "name": "uuid",
          "type": "uint256"
        },
        {
          "internalType": "uint256",
          "name": "unblindedSignedUUID",
          "type": "uint256"
        },
        {
          "internalType": "uint256",
          "name": "choice",
          "type": "uint256"
        }
      ],
      "stateMutability": "view",
      "type": "function"
    },
    {
      "inputs": [
        {
          "internalType": "uint256",
          "name": "",
          "type": "uint256"
        }
      ],
      "name": "choices",
      "outputs": [
        {
          "internalType": "string",
          "name": "choice",
          "type": "string"
        },
        {
          "internalType": "uint256",
          "name": "votes",
          "type": "uint256"
        }
      ],
      "stateMutability": "view",
      "type": "function"
    },
    {
      "inputs": [],
      "name": "eligibleVotersCount",
      "outputs": [
        {
          "internalType": "uint256",
          "name": "",
          "type": "uint256"
        }
      ],
      "stateMutability": "view",
      "type": "function"
    },
    {
      "inputs": [],
      "name": "name",
      "outputs": [
        {
          "internalType": "string",
          "name": "",
          "type": "string"
        }
      ],
      "stateMutability": "view",
      "type": "function"
    },
    {
      "inputs": [],
      "name": "owner",
      "outputs": [
        {
          "internalType": "address",
          "name": "",
          "type": "address"
        }
      ],
      "stateMutability": "view",
      "type": "function"
    },
    {
      "inputs": [],
      "name": "registeredVotersCount",
      "outputs": [
        {
          "internalType": "uint256",
          "name": "",
          "type": "uint256"
        }
      ],
      "stateMutability": "view",
      "type": "function"
    },
    {
      "inputs": [],
      "name": "registrationEnd",
      "outputs": [
        {
          "internalType": "uint256",
          "name": "",
          "type": "uint256"
        }
      ],
      "stateMutability": "view",
      "type": "function"
    },
    {
      "inputs": [],
      "name": "registrationStart",
      "outputs": [
        {
          "internalType": "uint256",
          "name": "",
          "type": "uint256"
        }
      ],
      "stateMutability": "view",
      "type": "function"
    },
    {
      "inputs": [],
      "name": "renounceOwnership",
      "outputs": [],
      "stateMutability": "nonpayable",
      "type": "function"
    },
    {
      "inputs": [],
      "name": "signerRX",
      "outputs": [
        {
          "internalType": "uint256",
          "name": "",
          "type": "uint256"
        }
      ],
      "stateMutability": "view",
      "type": "function"
    },
    {
      "inputs": [],
      "name": "signerRY",
      "outputs": [
        {
          "internalType": "uint256",
          "name": "",
          "type": "uint256"
        }
      ],
      "stateMutability": "view",
      "type": "function"
    },
    {
      "inputs": [],
      "name": "tallied",
      "outputs": [
        {
          "internalType": "bool",
          "name": "",
          "type": "bool"
        }
      ],
      "stateMutability": "view",
      "type": "function"
    },
    {
      "inputs": [
        {
          "internalType": "address",
          "name": "newOwner",
          "type": "address"
        }
      ],
      "name": "transferOwnership",
      "outputs": [],
      "stateMutability": "nonpayable",
      "type": "function"
    },
    {
      "inputs": [
        {
          "internalType": "address",
          "name": "",
          "type": "address"
        }
      ],
      "name": "voters",
      "outputs": [
        {
          "internalType": "address",
          "name": "voterAddress",
          "type": "address"
        },
        {
          "internalType": "uint256",
          "name": "blindedUUID",
          "type": "uint256"
        },
        {
          "internalType": "uint256",
          "name": "signedBlindedUUID",
          "type": "uint256"
        },
        {
          "internalType": "bool",
          "name": "registered",
          "type": "bool"
        }
      ],
      "stateMutability": "view",
      "type": "function"
    },
    {
      "inputs": [
        {
          "internalType": "uint256",
          "name": "",
          "type": "uint256"
        }
      ],
      "name": "votes",
      "outputs": [
        {
          "internalType": "bool",
          "name": "voted",
          "type": "bool"
        },
        {
          "internalType": "uint256",
          "name": "choice",
          "type": "uint256"
        }
      ],
      "stateMutability": "view",
      "type": "function"
    },
    {
      "inputs": [],
      "name": "votingEnd",
      "outputs": [
        {
          "internalType": "uint256",
          "name": "",
          "type": "uint256"
        }
      ],
      "stateMutability": "view",
      "type": "function"
    },
    {
      "inputs": [],
      "name": "votingStart",
      "outputs": [
        {
          "internalType": "uint256",
          "name": "",
          "type": "uint256"
        }
      ],
      "stateMutability": "view",
      "type": "function"
    },
    {
      "inputs": [
        {
          "internalType": "address[]",
          "name": "_voterAddresses",
          "type": "address[]"
        }
      ],
      "name": "addVoters",
      "outputs": [],
      "stateMutability": "nonpayable",
      "type": "function"
    },
    {
      "inputs": [
        {
          "internalType": "uint256",
          "name": "_blindedUUID",
          "type": "uint256"
        }
      ],
      "name": "register",
      "outputs": [],
      "stateMutability": "nonpayable",
      "type": "function"
    },
    {
      "inputs": [
        {
          "internalType": "address",
          "name": "_voterAddress",
          "type": "address"
        },
        {
          "internalType": "uint256",
          "name": "_signedBlindedUUID",
          "type": "uint256"
        }
      ],
      "name": "signBlindedUUID",
      "outputs": [],
      "stateMutability": "nonpayable",
      "type": "function"
    },
    {
      "inputs": [
        {
          "internalType": "uint256",
          "name": "_RX",
          "type": "uint256"
        },
        {
          "internalType": "uint256",
          "name": "_RY",
          "type": "uint256"
        },
        {
          "internalType": "uint256",
          "name": "_uuid",
          "type": "uint256"
        },
        {
          "internalType": "uint256",
          "name": "_unblindedSignedUUID",
          "type": "uint256"
        },
        {
          "internalType": "uint256",
          "name": "_choice",
          "type": "uint256"
        }
      ],
      "name": "vote",
      "outputs": [],
      "stateMutability": "nonpayable",
      "type": "function"
    },
    {
      "inputs": [
        {
          "internalType": "uint256[]",
          "name": "_uuids",
          "type": "uint256[]"
        },
        {
          "internalType": "uint256[]",
          "name": "_choices",
          "type": "uint256[]"
        }
      ],
      "name": "tallyVotes",
      "outputs": [],
      "stateMutability": "nonpayable",
      "type": "function"
    },
    {
      "inputs": [],
      "name": "getChoices",
      "outputs": [
        {
          "components": [
            {
              "internalType": "string",
              "name": "choice",
              "type": "string"
            },
            {
              "internalType": "uint256",
              "name": "votes",
              "type": "uint256"
            }
          ],
          "internalType": "struct VotingSystem.Choice[]",
          "name": "",
          "type": "tuple[]"
        }
      ],
      "stateMutability": "view",
      "type": "function"
    },
    {
      "inputs": [],
      "name": "getBallots",
      "outputs": [
        {
          "components": [
            {
              "internalType": "uint256",
              "name": "RX",
              "type": "uint256"
            },
            {
              "internalType": "uint256",
              "name": "RY",
              "type": "uint256"
            },
            {
              "internalType": "uint256",
              "name": "uuid",
              "type": "uint256"
            },
            {
              "internalType": "uint256",
              "name": "unblindedSignedUUID",
              "type": "uint256"
            },
            {
              "internalType": "uint256",
              "name": "choice",
              "type": "uint256"
            }
          ],
          "internalType": "struct VotingSystem.Ballot[]",
          "name": "",
          "type": "tuple[]"
        }
      ],
      "stateMutability": "view",
      "type": "function"
    },
    {
      "inputs": [],
      "name": "getRegistrationTime",
      "outputs": [
        {
          "internalType": "uint256",
          "name": "",
          "type": "uint256"
        },
        {
          "internalType": "uint256",
          "name": "",
          "type": "uint256"
        }
      ],
      "stateMutability": "view",
      "type": "function"
    },
    {
      "inputs": [],
      "name": "getVotingTime",
      "outputs": [
        {
          "internalType": "uint256",
          "name": "",
          "type": "uint256"
        },
        {
          "internalType": "uint256",
          "name": "",
          "type": "uint256"
        }
      ],
      "stateMutability": "view",
      "type": "function"
    }
  ],
  "bytecode": "0x60806040523480156200001157600080fd5b506040516200378f3803806200378f833981810160405281019062000037919062000840565b620000576200004b620002df60201b60201c565b620002e760201b60201c565b6000885114156200009f576040517f08c379a00000000000000000000000000000000000000000000000000000000081526004016200009690620009a8565b60405180910390fd5b600087511415620000e7576040517f08c379a0000000000000000000000000000000000000000000000000000000008152600401620000de9062000a1a565b60405180910390fd5b60008614158015620000fa575060008514155b801562000108575060008414155b801562000116575060008314155b62000158576040517f08c379a00000000000000000000000000000000000000000000000000000000081526004016200014f9062000a8c565b60405180910390fd5b8486106200019d576040517f08c379a0000000000000000000000000000000000000000000000000000000008152600401620001949062000afe565b60405180910390fd5b83851115620001e3576040517f08c379a0000000000000000000000000000000000000000000000000000000008152600401620001da9062000b70565b60405180910390fd5b82841062000228576040517f08c379a00000000000000000000000000000000000000000000000000000000081526004016200021f9062000be2565b60405180910390fd5b600082141580156200023b575060008114155b6200027d576040517f08c379a0000000000000000000000000000000000000000000000000000000008152600401620002749062000c54565b60405180910390fd5b876001908051906020019062000295929190620004bc565b50620002a787620003ab60201b60201c565b856002819055508460038190555083600481905550826005819055508160068190555080600781905550505050505050505062000d0a565b600033905090565b60008060009054906101000a900473ffffffffffffffffffffffffffffffffffffffff169050816000806101000a81548173ffffffffffffffffffffffffffffffffffffffff021916908373ffffffffffffffffffffffffffffffffffffffff1602179055508173ffffffffffffffffffffffffffffffffffffffff168173ffffffffffffffffffffffffffffffffffffffff167f8be0079c531659141344cd1fd0a4f28419497f9722a3daafe3b4186f6b6457e060405160405180910390a35050565b60008151905060005b81811015620004b7576000838281518110620003d557620003d462000c76565b5b602002602001015151141562000422576040517f08c379a0000000000000000000000000000000000000000000000000000000008152600401620004199062000a1a565b60405180910390fd5b600c604051806040016040528085848151811062000445576200044462000c76565b5b602002602001015181526020016000815250908060018154018082558091505060019003906000526020600020906002020160009091909190915060008201518160000190805190602001906200049e929190620004bc565b50602082015181600101555050806001019050620003b4565b505050565b828054620004ca9062000cd4565b90600052602060002090601f016020900481019282620004ee57600085556200053a565b82601f106200050957805160ff19168380011785556200053a565b828001600101855582156200053a579182015b82811115620005395782518255916020019190600101906200051c565b5b5090506200054991906200054d565b5090565b5b80821115620005685760008160009055506001016200054e565b5090565b6000604051905090565b600080fd5b600080fd5b600080fd5b600080fd5b6000601f19601f8301169050919050565b7f4e487b7100000000000000000000000000000000000000000000000000000000600052604160045260246000fd5b620005d5826200058a565b810181811067ffffffffffffffff82111715620005f757620005f66200059b565b5b80604052505050565b60006200060c6200056c565b90506200061a8282620005ca565b919050565b600067ffffffffffffffff8211156200063d576200063c6200059b565b5b62000648826200058a565b9050602081019050919050565b60005b838110156200067557808201518184015260208101905062000658565b8381111562000685576000848401525b50505050565b6000620006a26200069c846200061f565b62000600565b905082815260208101848484011115620006c157620006c062000585565b5b620006ce84828562000655565b509392505050565b600082601f830112620006ee57620006ed62000580565b5b8151620007008482602086016200068b565b91505092915050565b600067ffffffffffffffff8211156200072757620007266200059b565b5b602082029050602081019050919050565b600080fd5b6000620007546200074e8462000709565b62000600565b905080838252602082019050602084028301858111156200077a576200077962000738565b5b835b81811015620007c857805167ffffffffffffffff811115620007a357620007a262000580565b5b808601620007b28982620006d6565b855260208501945050506020810190506200077c565b5050509392505050565b600082601f830112620007ea57620007e962000580565b5b8151620007fc8482602086016200073d565b91505092915050565b6000819050919050565b6200081a8162000805565b81146200082657600080fd5b50565b6000815190506200083a816200080f565b92915050565b600080600080600080600080610100898b03121562000864576200086362000576565b5b600089015167ffffffffffffffff8111156200088557620008846200057b565b5b620008938b828c01620006d6565b985050602089015167ffffffffffffffff811115620008b757620008b66200057b565b5b620008c58b828c01620007d2565b9750506040620008d88b828c0162000829565b9650506060620008eb8b828c0162000829565b9550506080620008fe8b828c0162000829565b94505060a0620009118b828c0162000829565b93505060c0620009248b828c0162000829565b92505060e0620009378b828c0162000829565b9150509295985092959890939650565b600082825260208201905092915050565b7f4572726f723a20456d7074794e616d6500000000000000000000000000000000600082015250565b60006200099060108362000947565b91506200099d8262000958565b602082019050919050565b60006020820190508181036000830152620009c38162000981565b9050919050565b7f4572726f723a20456d70747943686f6963657300000000000000000000000000600082015250565b600062000a0260138362000947565b915062000a0f82620009ca565b602082019050919050565b6000602082019050818103600083015262000a3581620009f3565b9050919050565b7f4572726f723a205a65726f54696d650000000000000000000000000000000000600082015250565b600062000a74600f8362000947565b915062000a818262000a3c565b602082019050919050565b6000602082019050818103600083015262000aa78162000a65565b9050919050565b7f4572726f723a20526567697374726174696f6e54696d654572726f7200000000600082015250565b600062000ae6601c8362000947565b915062000af38262000aae565b602082019050919050565b6000602082019050818103600083015262000b198162000ad7565b9050919050565b7f4572726f723a2054696d654572726f7200000000000000000000000000000000600082015250565b600062000b5860108362000947565b915062000b658262000b20565b602082019050919050565b6000602082019050818103600083015262000b8b8162000b49565b9050919050565b7f4572726f723a20566f74696e6754696d654572726f7200000000000000000000600082015250565b600062000bca60168362000947565b915062000bd78262000b92565b602082019050919050565b6000602082019050818103600083015262000bfd8162000bbb565b9050919050565b7f4572726f723a205a65726f4b6579000000000000000000000000000000000000600082015250565b600062000c3c600e8362000947565b915062000c498262000c04565b602082019050919050565b6000602082019050818103600083015262000c6f8162000c2d565b9050919050565b7f4e487b7100000000000000000000000000000000000000000000000000000000600052603260045260246000fd5b7f4e487b7100000000000000000000000000000000000000000000000000000000600052602260045260246000fd5b6000600282049050600182168062000ced57607f821691505b6020821081141562000d045762000d0362000ca5565b5b50919050565b612a758062000d1a6000396000f3fe608060405234801561001057600080fd5b50600436106101a95760003560e01c806383293bc3116100f9578063ca1e513411610097578063ef6304f211610071578063ef6304f214610484578063f207564e146104a2578063f2fde38b146104be578063f6fd7fde146104da576101a9565b8063ca1e51341461042c578063e16b8f7914610448578063eb87c6dc14610466576101a9565b80639365999b116100d35780639365999b1461039f57806398c81bbf146103bd578063a3ec138d146103db578063b4062a311461040e576101a9565b806383293bc31461034557806385a38635146103635780638da5cb5b14610381576101a9565b80631bb1baf0116101665780635c632b38116101405780635c632b38146102ba5780635df81330146102ee578063715018a61461031f5780638203373a14610329576101a9565b80631bb1baf0146102615780632962863c1461027f5780633e2fcd561461029e576101a9565b8063015af16f146101ae57806306fdde03146101ca578063101158af146101e857806313446a751461020657806315c2f63614610224578063178e10ca14610243575b600080fd5b6101c860048036038101906101c391906118e2565b61050b565b005b6101d2610775565b6040516101df91906119bb565b60405180910390f35b6101f0610803565b6040516101fd91906119ec565b60405180910390f35b61020e610809565b60405161021b91906119ec565b60405180910390f35b61022c61080f565b60405161023a929190611a07565b60405180910390f35b61024b610820565b6040516102589190611a4b565b60405180910390f35b610269610833565b60405161027691906119ec565b60405180910390f35b610287610839565b604051610295929190611a07565b60405180910390f35b6102b860048036038101906102b39190611bae565b61084a565b005b6102d460048036038101906102cf9190611c26565b6109e7565b6040516102e5959493929190611c53565b60405180910390f35b61030860048036038101906103039190611c26565b610a2d565b604051610316929190611ca6565b60405180910390f35b610327610a5e565b005b610343600480360381019061033e9190611d92565b610ae6565b005b61034d610bac565b60405161035a91906119ec565b60405180910390f35b61036b610bb2565b60405161037891906119ec565b60405180910390f35b610389610bb8565b6040516103969190611dea565b60405180910390f35b6103a7610be1565b6040516103b491906119ec565b60405180910390f35b6103c5610be7565b6040516103d29190611f5d565b60405180910390f35b6103f560048036038101906103f09190611f7f565b610ce2565b6040516104059493929190611fac565b60405180910390f35b610416610d3f565b60405161042391906119ec565b60405180910390f35b61044660048036038101906104419190611ff1565b610d45565b005b610450610fa9565b60405161045d91906119ec565b60405180910390f35b61046e610faf565b60405161047b9190612183565b60405180910390f35b61048c611040565b60405161049991906119ec565b60405180910390f35b6104bc60048036038101906104b79190611c26565b611046565b005b6104d860048036038101906104d39190611f7f565b611270565b005b6104f460048036038101906104ef9190611c26565b611368565b6040516105029291906121a5565b60405180910390f35b610513611424565b73ffffffffffffffffffffffffffffffffffffffff16610531610bb8565b73ffffffffffffffffffffffffffffffffffffffff1614610587576040517f08c379a000000000000000000000000000000000000000000000000000000000815260040161057e90612221565b60405180910390fd5b81600073ffffffffffffffffffffffffffffffffffffffff16600e60008373ffffffffffffffffffffffffffffffffffffffff1673ffffffffffffffffffffffffffffffffffffffff16815260200190815260200160002060000160009054906101000a900473ffffffffffffffffffffffffffffffffffffffff1673ffffffffffffffffffffffffffffffffffffffff16141561065a576040517f08c379a00000000000000000000000000000000000000000000000000000000081526004016106519061228d565b60405180910390fd5b600082141561069e576040517f08c379a0000000000000000000000000000000000000000000000000000000008152600401610695906122f9565b60405180910390fd5b6000600e60008573ffffffffffffffffffffffffffffffffffffffff1673ffffffffffffffffffffffffffffffffffffffff1681526020019081526020016000206002015414610723576040517f08c379a000000000000000000000000000000000000000000000000000000000815260040161071a90612365565b60405180910390fd5b6000600e60008573ffffffffffffffffffffffffffffffffffffffff1673ffffffffffffffffffffffffffffffffffffffff168152602001908152602001600020905082816002018190555050505050565b60018054610782906123b4565b80601f01602080910402602001604051908101604052809291908181526020018280546107ae906123b4565b80156107fb5780601f106107d0576101008083540402835291602001916107fb565b820191906000526020600020905b8154815290600101906020018083116107de57829003601f168201915b505050505081565b60045481565b60035481565b600080600454600554915091509091565b600b60009054906101000a900460ff1681565b60065481565b600080600254600354915091509091565b610852611424565b73ffffffffffffffffffffffffffffffffffffffff16610870610bb8565b73ffffffffffffffffffffffffffffffffffffffff16146108c6576040517f08c379a00000000000000000000000000000000000000000000000000000000081526004016108bd90612221565b60405180910390fd5b600554421161090a576040517f08c379a000000000000000000000000000000000000000000000000000000000815260040161090190612432565b60405180910390fd5b60001515600b60009054906101000a900460ff16151514610960576040517f08c379a00000000000000000000000000000000000000000000000000000000081526004016109579061249e565b60405180910390fd5b60008251905060005b818110156109c6576000848281518110610986576109856124be565b5b6020026020010151905060008483815181106109a5576109a46124be565b5b602002602001015190506109b9828261142c565b8260010192505050610969565b506001600b60006101000a81548160ff021916908315150217905550505050565b600d81815481106109f757600080fd5b90600052602060002090600502016000915090508060000154908060010154908060020154908060030154908060040154905085565b600f6020528060005260406000206000915090508060000160009054906101000a900460ff16908060010154905082565b610a66611424565b73ffffffffffffffffffffffffffffffffffffffff16610a84610bb8565b73ffffffffffffffffffffffffffffffffffffffff1614610ada576040517f08c379a0000000000000000000000000000000000000000000000000000000008152600401610ad190612221565b60405180910390fd5b610ae46000611558565b565b610aee611424565b73ffffffffffffffffffffffffffffffffffffffff16610b0c610bb8565b73ffffffffffffffffffffffffffffffffffffffff1614610b62576040517f08c379a0000000000000000000000000000000000000000000000000000000008152600401610b5990612221565b60405180910390fd5b60008151905060005b81811015610ba7576000838281518110610b8857610b876124be565b5b60200260200101519050610b9b8161161c565b81600101915050610b6b565b505050565b60075481565b60055481565b60008060009054906101000a900473ffffffffffffffffffffffffffffffffffffffff16905090565b60085481565b6060600c805480602002602001604051908101604052809291908181526020016000905b82821015610cd95783829060005260206000209060020201604051806040016040529081600082018054610c3e906123b4565b80601f0160208091040260200160405190810160405280929190818152602001828054610c6a906123b4565b8015610cb75780601f10610c8c57610100808354040283529160200191610cb7565b820191906000526020600020905b815481529060010190602001808311610c9a57829003601f168201915b5050505050815260200160018201548152505081526020019060010190610c0b565b50505050905090565b600e6020528060005260406000206000915090508060000160009054906101000a900473ffffffffffffffffffffffffffffffffffffffff16908060010154908060020154908060030160009054906101000a900460ff16905084565b60025481565b60045442118015610d57575060055442105b610d96576040517f08c379a0000000000000000000000000000000000000000000000000000000008152600401610d8d90612539565b60405180910390fd5b60008514158015610da8575060008414155b610de7576040517f08c379a0000000000000000000000000000000000000000000000000000000008152600401610dde906125a5565b60405180910390fd5b60008314158015610df9575060008214155b610e38576040517f08c379a0000000000000000000000000000000000000000000000000000000008152600401610e2f90612637565b60405180910390fd5b600d6040518060a001604052808781526020018681526020018581526020018481526020018381525090806001815401808255809150506001900390600052602060002090600502016000909190919091506000820151816000015560208201518160010155604082015181600201556060820151816003015560808201518160040155505060001515600f600085815260200190815260200160002060000160009054906101000a900460ff16151514610f28576040517f08c379a0000000000000000000000000000000000000000000000000000000008152600401610f1f906126a3565b60405180910390fd5b6000600f6000858152602001908152602001600020905060018160000160006101000a81548160ff02191690831515021790555081843373ffffffffffffffffffffffffffffffffffffffff167fea66f58e474bc09f580000e81f31b334d171db387d0c6098ba47bd897741679b60405160405180910390a4505050505050565b60095481565b6060600d805480602002602001604051908101604052809291908181526020016000905b8282101561103757838290600052602060002090600502016040518060a00160405290816000820154815260200160018201548152602001600282015481526020016003820154815260200160048201548152505081526020019060010190610fd3565b50505050905090565b600a5481565b33600073ffffffffffffffffffffffffffffffffffffffff16600e60008373ffffffffffffffffffffffffffffffffffffffff1673ffffffffffffffffffffffffffffffffffffffff16815260200190815260200160002060000160009054906101000a900473ffffffffffffffffffffffffffffffffffffffff1673ffffffffffffffffffffffffffffffffffffffff161415611119576040517f08c379a00000000000000000000000000000000000000000000000000000000081526004016111109061228d565b60405180910390fd5b600082141561115d576040517f08c379a00000000000000000000000000000000000000000000000000000000081526004016111549061270f565b60405180910390fd5b6002544211801561116f575060035442105b6111ae576040517f08c379a00000000000000000000000000000000000000000000000000000000081526004016111a59061277b565b60405180910390fd5b6000600e60003373ffffffffffffffffffffffffffffffffffffffff1673ffffffffffffffffffffffffffffffffffffffff168152602001908152602001600020905060018160030160006101000a81548160ff021916908315150217905550828160010181905550823373ffffffffffffffffffffffffffffffffffffffff167f6f3bf3fa84e4763a43b3d23f9d79be242d6d5c834941ff4c1111b67469e1150c60405160405180910390a3600a6000815460010191905081905550505050565b611278611424565b73ffffffffffffffffffffffffffffffffffffffff16611296610bb8565b73ffffffffffffffffffffffffffffffffffffffff16146112ec576040517f08c379a00000000000000000000000000000000000000000000000000000000081526004016112e390612221565b60405180910390fd5b600073ffffffffffffffffffffffffffffffffffffffff168173ffffffffffffffffffffffffffffffffffffffff16141561135c576040517f08c379a00000000000000000000000000000000000000000000000000000000081526004016113539061280d565b60405180910390fd5b61136581611558565b50565b600c818154811061137857600080fd5b906000526020600020906002020160009150905080600001805461139b906123b4565b80601f01602080910402602001604051908101604052809291908181526020018280546113c7906123b4565b80156114145780601f106113e957610100808354040283529160200191611414565b820191906000526020600020905b8154815290600101906020018083116113f757829003601f168201915b5050505050908060010154905082565b600033905090565b600f600083815260200190815260200160002060000160009054906101000a900460ff1661148f576040517f08c379a000000000000000000000000000000000000000000000000000000000815260040161148690612879565b60405180910390fd5b6000600f600084815260200190815260200160002060010154146114e8576040517f08c379a00000000000000000000000000000000000000000000000000000000081526004016114df9061249e565b60405180910390fd5b6000600f6000848152602001908152602001600020905060018261150c91906128c8565b81600101819055506000600c838154811061152a576115296124be565b5b90600052602060002090600202019050806001016000815461154b9061291e565b9190508190555050505050565b60008060009054906101000a900473ffffffffffffffffffffffffffffffffffffffff169050816000806101000a81548173ffffffffffffffffffffffffffffffffffffffff021916908373ffffffffffffffffffffffffffffffffffffffff1602179055508173ffffffffffffffffffffffffffffffffffffffff168173ffffffffffffffffffffffffffffffffffffffff167f8be0079c531659141344cd1fd0a4f28419497f9722a3daafe3b4186f6b6457e060405160405180910390a35050565b600073ffffffffffffffffffffffffffffffffffffffff168173ffffffffffffffffffffffffffffffffffffffff16141561168c576040517f08c379a0000000000000000000000000000000000000000000000000000000008152600401611683906129b3565b60405180910390fd5b600073ffffffffffffffffffffffffffffffffffffffff16600e60008373ffffffffffffffffffffffffffffffffffffffff1673ffffffffffffffffffffffffffffffffffffffff16815260200190815260200160002060000160009054906101000a900473ffffffffffffffffffffffffffffffffffffffff1673ffffffffffffffffffffffffffffffffffffffff161461175d576040517f08c379a000000000000000000000000000000000000000000000000000000000815260040161175490612a1f565b60405180910390fd5b6000600e60008373ffffffffffffffffffffffffffffffffffffffff1673ffffffffffffffffffffffffffffffffffffffff1681526020019081526020016000209050818160000160006101000a81548173ffffffffffffffffffffffffffffffffffffffff021916908373ffffffffffffffffffffffffffffffffffffffff1602179055508173ffffffffffffffffffffffffffffffffffffffff167fc51b73893f94ef5257f9702372af97231d49e643f3aa0aa23e7df80f55423e3360405160405180910390a2600960008154600101919050819055505050565b6000604051905090565b600080fd5b600080fd5b600073ffffffffffffffffffffffffffffffffffffffff82169050919050565b60006118798261184e565b9050919050565b6118898161186e565b811461189457600080fd5b50565b6000813590506118a681611880565b92915050565b6000819050919050565b6118bf816118ac565b81146118ca57600080fd5b50565b6000813590506118dc816118b6565b92915050565b600080604083850312156118f9576118f8611844565b5b600061190785828601611897565b9250506020611918858286016118cd565b9150509250929050565b600081519050919050565b600082825260208201905092915050565b60005b8381101561195c578082015181840152602081019050611941565b8381111561196b576000848401525b50505050565b6000601f19601f8301169050919050565b600061198d82611922565b611997818561192d565b93506119a781856020860161193e565b6119b081611971565b840191505092915050565b600060208201905081810360008301526119d58184611982565b905092915050565b6119e6816118ac565b82525050565b6000602082019050611a0160008301846119dd565b92915050565b6000604082019050611a1c60008301856119dd565b611a2960208301846119dd565b9392505050565b60008115159050919050565b611a4581611a30565b82525050565b6000602082019050611a606000830184611a3c565b92915050565b600080fd5b7f4e487b7100000000000000000000000000000000000000000000000000000000600052604160045260246000fd5b611aa382611971565b810181811067ffffffffffffffff82111715611ac257611ac1611a6b565b5b80604052505050565b6000611ad561183a565b9050611ae18282611a9a565b919050565b600067ffffffffffffffff821115611b0157611b00611a6b565b5b602082029050602081019050919050565b600080fd5b6000611b2a611b2584611ae6565b611acb565b90508083825260208201905060208402830185811115611b4d57611b4c611b12565b5b835b81811015611b765780611b6288826118cd565b845260208401935050602081019050611b4f565b5050509392505050565b600082601f830112611b9557611b94611a66565b5b8135611ba5848260208601611b17565b91505092915050565b60008060408385031215611bc557611bc4611844565b5b600083013567ffffffffffffffff811115611be357611be2611849565b5b611bef85828601611b80565b925050602083013567ffffffffffffffff811115611c1057611c0f611849565b5b611c1c85828601611b80565b9150509250929050565b600060208284031215611c3c57611c3b611844565b5b6000611c4a848285016118cd565b91505092915050565b600060a082019050611c6860008301886119dd565b611c7560208301876119dd565b611c8260408301866119dd565b611c8f60608301856119dd565b611c9c60808301846119dd565b9695505050505050565b6000604082019050611cbb6000830185611a3c565b611cc860208301846119dd565b9392505050565b600067ffffffffffffffff821115611cea57611ce9611a6b565b5b602082029050602081019050919050565b6000611d0e611d0984611ccf565b611acb565b90508083825260208201905060208402830185811115611d3157611d30611b12565b5b835b81811015611d5a5780611d468882611897565b845260208401935050602081019050611d33565b5050509392505050565b600082601f830112611d7957611d78611a66565b5b8135611d89848260208601611cfb565b91505092915050565b600060208284031215611da857611da7611844565b5b600082013567ffffffffffffffff811115611dc657611dc5611849565b5b611dd284828501611d64565b91505092915050565b611de48161186e565b82525050565b6000602082019050611dff6000830184611ddb565b92915050565b600081519050919050565b600082825260208201905092915050565b6000819050602082019050919050565b600082825260208201905092915050565b6000611e4d82611922565b611e578185611e31565b9350611e6781856020860161193e565b611e7081611971565b840191505092915050565b611e84816118ac565b82525050565b60006040830160008301518482036000860152611ea78282611e42565b9150506020830151611ebc6020860182611e7b565b508091505092915050565b6000611ed38383611e8a565b905092915050565b6000602082019050919050565b6000611ef382611e05565b611efd8185611e10565b935083602082028501611f0f85611e21565b8060005b85811015611f4b5784840389528151611f2c8582611ec7565b9450611f3783611edb565b925060208a01995050600181019050611f13565b50829750879550505050505092915050565b60006020820190508181036000830152611f778184611ee8565b905092915050565b600060208284031215611f9557611f94611844565b5b6000611fa384828501611897565b91505092915050565b6000608082019050611fc16000830187611ddb565b611fce60208301866119dd565b611fdb60408301856119dd565b611fe86060830184611a3c565b95945050505050565b600080600080600060a0868803121561200d5761200c611844565b5b600061201b888289016118cd565b955050602061202c888289016118cd565b945050604061203d888289016118cd565b935050606061204e888289016118cd565b925050608061205f888289016118cd565b9150509295509295909350565b600081519050919050565b600082825260208201905092915050565b6000819050602082019050919050565b60a0820160008201516120ae6000850182611e7b565b5060208201516120c16020850182611e7b565b5060408201516120d46040850182611e7b565b5060608201516120e76060850182611e7b565b5060808201516120fa6080850182611e7b565b50505050565b600061210c8383612098565b60a08301905092915050565b6000602082019050919050565b60006121308261206c565b61213a8185612077565b935061214583612088565b8060005b8381101561217657815161215d8882612100565b975061216883612118565b925050600181019050612149565b5085935050505092915050565b6000602082019050818103600083015261219d8184612125565b905092915050565b600060408201905081810360008301526121bf8185611982565b90506121ce60208301846119dd565b9392505050565b7f4f776e61626c653a2063616c6c6572206973206e6f7420746865206f776e6572600082015250565b600061220b60208361192d565b9150612216826121d5565b602082019050919050565b6000602082019050818103600083015261223a816121fe565b9050919050565b7f4572726f723a20496e76616c6964566f74657200000000000000000000000000600082015250565b600061227760138361192d565b915061228282612241565b602082019050919050565b600060208201905081810360008301526122a68161226a565b9050919050565b7f4572726f723a205a65726f5369676e6564426c696e6465645555494400000000600082015250565b60006122e3601c8361192d565b91506122ee826122ad565b602082019050919050565b60006020820190508181036000830152612312816122d6565b9050919050565b7f4572726f723a20416c72656164795369676e6564000000000000000000000000600082015250565b600061234f60148361192d565b915061235a82612319565b602082019050919050565b6000602082019050818103600083015261237e81612342565b9050919050565b7f4e487b7100000000000000000000000000000000000000000000000000000000600052602260045260246000fd5b600060028204905060018216806123cc57607f821691505b602082108114156123e0576123df612385565b5b50919050565b7f4572726f723a204e6f7454616c6c79506572696f640000000000000000000000600082015250565b600061241c60158361192d565b9150612427826123e6565b602082019050919050565b6000602082019050818103600083015261244b8161240f565b9050919050565b7f4572726f723a20416c726561647954616c6c6965640000000000000000000000600082015250565b600061248860158361192d565b915061249382612452565b602082019050919050565b600060208201905081810360008301526124b78161247b565b9050919050565b7f4e487b7100000000000000000000000000000000000000000000000000000000600052603260045260246000fd5b7f4572726f723a204e6f74566f74696e67506572696f6400000000000000000000600082015250565b600061252360168361192d565b915061252e826124ed565b602082019050919050565b6000602082019050818103600083015261255281612516565b9050919050565b7f4572726f723a205a65726f4b6579000000000000000000000000000000000000600082015250565b600061258f600e8361192d565b915061259a82612559565b602082019050919050565b600060208201905081810360008301526125be81612582565b9050919050565b7f4572726f723a205a65726f5555494420616e64205a65726f556e626c696e646560008201527f645369676e656455554944000000000000000000000000000000000000000000602082015250565b6000612621602b8361192d565b915061262c826125c5565b604082019050919050565b6000602082019050818103600083015261265081612614565b9050919050565b7f4572726f723a20416c7265616479566f74656400000000000000000000000000600082015250565b600061268d60138361192d565b915061269882612657565b602082019050919050565b600060208201905081810360008301526126bc81612680565b9050919050565b7f4572726f723a205a65726f555549440000000000000000000000000000000000600082015250565b60006126f9600f8361192d565b9150612704826126c3565b602082019050919050565b60006020820190508181036000830152612728816126ec565b9050919050565b7f4572726f723a204e6f74526567697374726174696f6e506572696f6400000000600082015250565b6000612765601c8361192d565b91506127708261272f565b602082019050919050565b6000602082019050818103600083015261279481612758565b9050919050565b7f4f776e61626c653a206e6577206f776e657220697320746865207a65726f206160008201527f6464726573730000000000000000000000000000000000000000000000000000602082015250565b60006127f760268361192d565b91506128028261279b565b604082019050919050565b60006020820190508181036000830152612826816127ea565b9050919050565b7f4572726f723a20496e76616c6964566f74650000000000000000000000000000600082015250565b600061286360128361192d565b915061286e8261282d565b602082019050919050565b6000602082019050818103600083015261289281612856565b9050919050565b7f4e487b7100000000000000000000000000000000000000000000000000000000600052601160045260246000fd5b60006128d3826118ac565b91506128de836118ac565b9250827fffffffffffffffffffffffffffffffffffffffffffffffffffffffffffffffff0382111561291357612912612899565b5b828201905092915050565b6000612929826118ac565b91507fffffffffffffffffffffffffffffffffffffffffffffffffffffffffffffffff82141561295c5761295b612899565b5b600182019050919050565b7f4572726f723a205a65726f416464726573730000000000000000000000000000600082015250565b600061299d60128361192d565b91506129a882612967565b602082019050919050565b600060208201905081810360008301526129cc81612990565b9050919050565b7f4572726f723a204578697374696e67566f746572000000000000000000000000600082015250565b6000612a0960148361192d565b9150612a14826129d3565b602082019050919050565b60006020820190508181036000830152612a38816129fc565b905091905056fea2646970667358221220c4fdb4fb9b662781f8d3101b0a991bb09b11de4d9cf98d1f8092a238a6c77f0064736f6c634300080b0033",
  "immutableReferences": {},
  "source": "// SPDX-License-Identifier: MIT\n\npragma solidity >=0.8.0 <0.9.0;\n\nimport \"@openzeppelin/contracts/access/Ownable.sol\";\n\n/**\n * @title Voting System\n * @author Marin I. Karadzhov \n * @notice This is an instance of a vote, deployed by a factory\n * for every new vote\n */\n\ncontract VotingSystem is Ownable {\n    struct Choice {\n        string choice;\n        uint256 votes;\n    }\n\n    struct Voter {\n        address voterAddress;\n        uint256 blindedUUID;\n        uint256 signedBlindedUUID;\n        bool registered;\n    }\n\n    struct Vote {\n        bool voted;\n        uint256 choice;\n    }\n\n    struct Ballot {\n        uint256 RX;\n        uint256 RY;\n        uint256 uuid;\n        uint256 unblindedSignedUUID;\n        uint256 choice;\n    }\n\n    string public name;\n\n    uint256 public registrationStart;\n    uint256 public registrationEnd;\n    uint256 public votingStart;\n    uint256 public votingEnd;\n\n    uint256 public signerRX;\n    uint256 public signerRY;\n\n    uint256 public alreadyVotedCount;\n    uint256 public eligibleVotersCount;\n    uint256 public registeredVotersCount;\n\n    bool public tallied;\n\n    Choice[] public choices;\n\n    Ballot[] public ballots;\n\n    /**\n     * @notice Voters\n     * A mapping with voters address as a key and a struct Voter as value.\n     */\n    mapping(address => Voter) public voters;\n\n    /**\n     * @notice Voters\n     * A mapping with voters UUID as a key and a struct Vote as value.\n     */\n    mapping(uint256 => Vote) public votes;\n\n    event AddedVoter(address indexed voter);\n    event Registered(address indexed voter, uint256 indexed blindedUUID);\n    event Voted(\n        address indexed voter,\n        uint256 indexed uuid,\n        uint256 indexed choice\n    );\n\n    /**\n     * @notice Check if a voter is eligible or not\n     * @param _voterAddress: The address of the given voter\n     */\n    modifier isEligibleVoter(address _voterAddress) {\n        require(\n            voters[_voterAddress].voterAddress != address(0),\n            \"Error: InvalidVoter\"\n        );\n        _;\n    }\n\n    /**\n     * @notice Constructor\n     * Initialize a vote. All the parameters are immutable once set.\n     * The name of the vote must not be empty string. The array of\n     * choices must not be empty, or contain empty strings. The value\n     * of registration start timestamp must be lesser than the\n     * registration end timestamp. The value of voting start timestamp\n     * must be lesser than the voting end timestamp, but greater than\n     * or equal to the registration end time. Finally the operators\n     * public key values must not be zero.\n     * @param _name: Name of the vote.\n     * @param _choices: A array of choices.\n     * @param _registrationStart: The start of the registration period.\n     * @param _registrationEnd: The end of the registration period.\n     * @param _votingStart: The start of the voting period.\n     * @param _votingEnd: The end of the voting period.\n     * @param _RX: The X value of the operators signing public key.\n     * @param _RY: The Y value of the operators signing public key.\n     */\n    constructor(\n        string memory _name,\n        string[] memory _choices,\n        uint256 _registrationStart,\n        uint256 _registrationEnd,\n        uint256 _votingStart,\n        uint256 _votingEnd,\n        uint256 _RX,\n        uint256 _RY\n    ) {\n        require(bytes(_name).length != 0, \"Error: EmptyName\");\n        require(_choices.length != 0, \"Error: EmptyChoices\");\n        require(\n            _registrationStart != 0 &&\n                _registrationEnd != 0 &&\n                _votingStart != 0 &&\n                _votingEnd != 0,\n            \"Error: ZeroTime\"\n        );\n        require(\n            _registrationStart < _registrationEnd,\n            \"Error: RegistrationTimeError\"\n        );\n        require(_registrationEnd <= _votingStart, \"Error: TimeError\");\n        require(_votingStart < _votingEnd, \"Error: VotingTimeError\");\n        require(_RX != 0 && _RY != 0, \"Error: ZeroKey\");\n\n        name = _name;\n        _addChoices(_choices);\n        registrationStart = _registrationStart;\n        registrationEnd = _registrationEnd;\n        votingStart = _votingStart;\n        votingEnd = _votingEnd;\n        signerRX = _RX;\n        signerRY = _RY;\n    }\n\n    /**\n     * @notice Add choices\n     * Add the choices of the vote.\n     * @param _choices: A string array of choices\n     * @dev\n     */\n    function _addChoices(string[] memory _choices) private {\n        uint256 length = _choices.length;\n        for (uint256 i = 0; i < length; ) {\n            require(bytes(_choices[i]).length != 0, \"Error: EmptyChoices\");\n\n            choices.push(Choice(_choices[i], 0));\n            unchecked {\n                ++i;\n            }\n        }\n    }\n\n    /**\n     * @notice Add a single voter\n     * Perform validation checks on the voter's address and\n     * then adds a Voter to the contract.\n     * @param _voterAddress: The address of the given voter\n     * @dev The function is called by addVoters for clean code\n     * purpoces.\n     */\n    function _addVoter(address _voterAddress) private {\n        require(_voterAddress != address(0), \"Error: ZeroAddress\");\n        require(\n            voters[_voterAddress].voterAddress == address(0),\n            \"Error: ExistingVoter\"\n        );\n\n        Voter storage voter = voters[_voterAddress];\n        voter.voterAddress = _voterAddress;\n\n        emit AddedVoter(_voterAddress);\n\n        unchecked {\n            ++eligibleVotersCount;\n        }\n    }\n\n    /**\n     * @notice Add voters\n     * The operator adds the eligible voters' addresses to the contract.\n     * @param _voterAddresses: An array of voter addresses.\n     */\n    function addVoters(address[] memory _voterAddresses) public onlyOwner {\n        uint256 length = _voterAddresses.length;\n        for (uint256 i = 0; i < length; ) {\n            address voterAddress = _voterAddresses[i];\n            _addVoter(voterAddress);\n            unchecked {\n                ++i;\n            }\n        }\n    }\n\n    /**\n     * @notice Register to vote\n     * The function is called by the voter himself in order to upload\n     * the blinded UUID to the contract to be signed. Marking the\n     * voter as register, giving him ability to vote in the voting\n     * period. The function can be executed only during the registration\n     * period by only eligible voters.\n     * @param _blindedUUID: The blinded value of the voters UUID.\n     */\n    function register(uint256 _blindedUUID) public isEligibleVoter(msg.sender) {\n        require(_blindedUUID != 0, \"Error: ZeroUUID\");\n        require(\n            block.timestamp > registrationStart &&\n                block.timestamp < registrationEnd,\n            \"Error: NotRegistrationPeriod\"\n        );\n\n        Voter storage voter = voters[msg.sender];\n        voter.registered = true;\n        voter.blindedUUID = _blindedUUID;\n\n        emit Registered(msg.sender, _blindedUUID);\n\n        unchecked {\n            ++registeredVotersCount;\n        }\n    }\n\n    /**\n     * @notice Set voter's signed blinded UUID\n     * The operator signs the blinded UUID of the voter offchain\n     * and uploads it to the contract using this function.\n     * @param _voterAddress: The address of the given voter.\n     * @param _signedBlindedUUID: The address of the given voter\n     */\n    function signBlindedUUID(address _voterAddress, uint256 _signedBlindedUUID)\n        public\n        onlyOwner\n        isEligibleVoter(_voterAddress)\n    {\n        require(_signedBlindedUUID != 0, \"Error: ZeroSignedBlindedUUID\");\n        require(\n            voters[_voterAddress].signedBlindedUUID == 0,\n            \"Error: AlreadySigned\"\n        );\n\n        Voter storage voter = voters[_voterAddress];\n        voter.signedBlindedUUID = _signedBlindedUUID;\n    }\n\n    /**\n     * @notice Vote\n     * The voter cast his vote using this function. It takes all\n     * the values required to compose a Ballot and cast it. The\n     * voters public key values must not be zero. Same goes for\n     * the UUID and the unblinded signed UUID. This function can\n     * be executed only during voting period.\n     * @param _RX: The X value of the voter's public key\n     * @param _RY: The Y value of the voter's public key\n     * @param _uuid: Voter's uuid\n     * @param _unblindedSignedUUID: Voter's unblinded signed uuid\n     * @param _choice: Voter's choice\n     */\n    function vote(\n        uint256 _RX,\n        uint256 _RY,\n        uint256 _uuid,\n        uint256 _unblindedSignedUUID,\n        uint256 _choice\n    ) public {\n        require(\n            block.timestamp > votingStart && block.timestamp < votingEnd,\n            \"Error: NotVotingPeriod\"\n        );\n        require(_RX != 0 && _RY != 0, \"Error: ZeroKey\");\n        require(\n            _uuid != 0 && _unblindedSignedUUID != 0,\n            \"Error: ZeroUUID and ZeroUnblindedSignedUUID\"\n        );\n\n        ballots.push(Ballot(_RX, _RY, _uuid, _unblindedSignedUUID, _choice));\n\n        require(votes[_uuid].voted == false, \"Error: AlreadyVoted\");\n\n        Vote storage userVote = votes[_uuid];\n        userVote.voted = true;\n\n        emit Voted(msg.sender, _uuid, _choice);\n    }\n\n    /**\n     * @notice Tally a single vote\n     * Records the vote of an user.\n     * The votes of only valid and not already tallied voters\n     * can be tallied.\n     * @param _uuid: Voter's uuid\n     * @param _choice: Voter's coresponding choice\n     * @dev To check if the vote was tallied previously the\n     * function require the choice of the corespondinding uuid\n     * to be 0 (the default value). Then to record vote the coice's\n     * value is incremented by 1 to prevent choice with value 0 to\n     * be tagged as already tallied.\n     */\n    function _tallyVote(uint256 _uuid, uint256 _choice) private {\n        require(votes[_uuid].voted, \"Error: InvalidVote\");\n        require(votes[_uuid].choice == 0, \"Error: AlreadyTallied\");\n\n        Vote storage userVote = votes[_uuid];\n        userVote.choice = _choice + 1;\n\n        Choice storage choice = choices[_choice];\n        ++choice.votes;\n    }\n\n    /**\n     * @notice Tally the votes\n     * The function tally the results after they have been verified\n     * as valid by the operator. Requires the time of execution to be\n     * past the voting end time. Can be called only once by the operator.\n     * @param _uuids: An array of voters' UUIDs\n     * @param _choices: An array of voters' corresponding  choices\n     */\n    function tallyVotes(uint256[] memory _uuids, uint256[] memory _choices)\n        public\n        onlyOwner\n    {\n        require(block.timestamp > votingEnd, \"Error: NotTallyPeriod\");\n        require(tallied == false, \"Error: AlreadyTallied\");\n\n        uint256 length = _uuids.length;\n        for (uint256 i = 0; i < length; ) {\n            uint256 voterUUID = _uuids[i];\n            uint256 voterChoice = _choices[i];\n            _tallyVote(voterUUID, voterChoice);\n            unchecked {\n                ++i;\n            }\n        }\n        tallied = true;\n    }\n\n    /**\n     * @notice Get choices\n     * @return Array of type Choice with all the choices.\n     */\n    function getChoices() public view returns (Choice[] memory) {\n        return choices;\n    }\n\n    /**\n     * @notice Get ballots\n     * @return Array of type Ballot with all the ballots.\n     */\n    function getBallots() public view returns (Ballot[] memory) {\n        return ballots;\n    }\n\n    /**\n     * @notice Get registration time\n     * @return Tupple of the registrationStart and registrationEnd.\n     */\n    function getRegistrationTime() public view returns (uint256, uint256) {\n        return (registrationStart, registrationEnd);\n    }\n\n    /**\n     * @notice Get voting time\n     * @return Tupple of the votingStart and votingEnd.\n     */\n    function getVotingTime() public view returns (uint256, uint256) {\n        return (votingStart, votingEnd);\n    }\n}\n",
  "sourcePath": "/home/citym/e-voting-system/truffle/contracts/VotingSystem.sol",
  "compiler": {
    "name": "solc",
    "version": "0.8.11+commit.d7f03943.Emscripten.clang"
  },
  "schemaVersion": "3.4.7",
  "updatedAt": "2022-06-07T23:29:08.525Z",
  "devdoc": {
    "author": "Marin I. Karadzhov ",
    "kind": "dev",
    "methods": {
      "addVoters(address[])": {
        "params": {
          "_voterAddresses": ": An array of voter addresses."
        }
      },
      "constructor": {
        "params": {
          "_RX": ": The X value of the operators signing public key.",
          "_RY": ": The Y value of the operators signing public key.",
          "_choices": ": A array of choices.",
          "_name": ": Name of the vote.",
          "_registrationEnd": ": The end of the registration period.",
          "_registrationStart": ": The start of the registration period.",
          "_votingEnd": ": The end of the voting period.",
          "_votingStart": ": The start of the voting period."
        }
      },
      "getBallots()": {
        "returns": {
          "_0": "Array of type Ballot with all the ballots."
        }
      },
      "getChoices()": {
        "returns": {
          "_0": "Array of type Choice with all the choices."
        }
      },
      "getRegistrationTime()": {
        "returns": {
          "_0": "Tupple of the registrationStart and registrationEnd."
        }
      },
      "getVotingTime()": {
        "returns": {
          "_0": "Tupple of the votingStart and votingEnd."
        }
      },
      "owner()": {
        "details": "Returns the address of the current owner."
      },
      "register(uint256)": {
        "params": {
          "_blindedUUID": ": The blinded value of the voters UUID."
        }
      },
      "renounceOwnership()": {
        "details": "Leaves the contract without owner. It will not be possible to call `onlyOwner` functions anymore. Can only be called by the current owner. NOTE: Renouncing ownership will leave the contract without an owner, thereby removing any functionality that is only available to the owner."
      },
      "signBlindedUUID(address,uint256)": {
        "params": {
          "_signedBlindedUUID": ": The address of the given voter",
          "_voterAddress": ": The address of the given voter."
        }
      },
      "tallyVotes(uint256[],uint256[])": {
        "params": {
          "_choices": ": An array of voters' corresponding  choices",
          "_uuids": ": An array of voters' UUIDs"
        }
      },
      "transferOwnership(address)": {
        "details": "Transfers ownership of the contract to a new account (`newOwner`). Can only be called by the current owner."
      },
      "vote(uint256,uint256,uint256,uint256,uint256)": {
        "params": {
          "_RX": ": The X value of the voter's public key",
          "_RY": ": The Y value of the voter's public key",
          "_choice": ": Voter's choice",
          "_unblindedSignedUUID": ": Voter's unblinded signed uuid",
          "_uuid": ": Voter's uuid"
        }
      }
    },
    "title": "Voting System",
    "version": 1
  },
  "userdoc": {
    "kind": "user",
    "methods": {
      "addVoters(address[])": {
        "notice": "Add voters The operator adds the eligible voters' addresses to the contract."
      },
      "constructor": {
        "notice": "Constructor Initialize a vote. All the parameters are immutable once set. The name of the vote must not be empty string. The array of choices must not be empty, or contain empty strings. The value of registration start timestamp must be lesser than the registration end timestamp. The value of voting start timestamp must be lesser than the voting end timestamp, but greater than or equal to the registration end time. Finally the operators public key values must not be zero."
      },
      "getBallots()": {
        "notice": "Get ballots"
      },
      "getChoices()": {
        "notice": "Get choices"
      },
      "getRegistrationTime()": {
        "notice": "Get registration time"
      },
      "getVotingTime()": {
        "notice": "Get voting time"
      },
      "register(uint256)": {
        "notice": "Register to vote The function is called by the voter himself in order to upload the blinded UUID to the contract to be signed. Marking the voter as register, giving him ability to vote in the voting period. The function can be executed only during the registration period by only eligible voters."
      },
      "signBlindedUUID(address,uint256)": {
        "notice": "Set voter's signed blinded UUID The operator signs the blinded UUID of the voter offchain and uploads it to the contract using this function."
      },
      "tallyVotes(uint256[],uint256[])": {
        "notice": "Tally the votes The function tally the results after they have been verified as valid by the operator. Requires the time of execution to be past the voting end time. Can be called only once by the operator."
      },
      "vote(uint256,uint256,uint256,uint256,uint256)": {
        "notice": "Vote The voter cast his vote using this function. It takes all the values required to compose a Ballot and cast it. The voters public key values must not be zero. Same goes for the UUID and the unblinded signed UUID. This function can be executed only during voting period."
      },
      "voters(address)": {
        "notice": "Voters A mapping with voters address as a key and a struct Voter as value."
      },
      "votes(uint256)": {
        "notice": "Voters A mapping with voters UUID as a key and a struct Vote as value."
      }
    },
    "notice": "This is an instance of a vote, deployed by a factory for every new vote",
    "version": 1
  }
}